:020000040800F2
:10000000009000208D1D0008DD1D0008DD1D00088A
:1000100000000000000000000000000000000000E0
:10002000000000000000000000000000DD1D0008CE
:100030000000000000000000DD1D0008F50B0008B6
:10004000DD1D000800000000DD1D0008DD1D0008AA
:10005000DD1D0008DD1D0008DD1D0008DD1D000898
:1000600000000000DD1D0008DD1D0008DD1D00088A
:10007000DD1D0008DD1D0008DD1D0008000000007A
:10008000DD1D0008DD1D0008DD1D0008DD1D000868
:10009000DD1D0008DD1D0008DD1D0008DD1D000858
:1000A000DD1D0008DD1D0008DD1D0008DD1D000848
:0800B000DD1D0008DD1D000844
:1000B800024670B50A4392072AD11E4DEE0104C8C4
:1000C80008C9541B9443344017D0D0B2D9B2401A4F
:1000D8002106014310D190B299B2401A210401437C
:1000E8000AD110021902000A090A401A2102014322
:1000F80002D1100E190E401A70BD9A42DFD010BA04
:1001080019BA884201D9012070BD0020C04370BDD2
:1001180002780B7801300131002A09D09A4207D1C0
:1001280002780B7801300131002A01D09A42EFD0D1
:10013800D01A70BD01010101002934D00123002229
:1001480010B488422CD301242407A14204D281424E
:1001580002D209011B01F8E7E400A14204D281425E
:1001680002D249005B00F8E7884201D3401A1A43DB
:100178004C08A04202D3001B5C0822438C08A04212
:1001880002D3001B9C082243CC08A04202D3001BC8
:10019800DC082243002803D01B0901D00909E3E742
:1001A800100010BC704701B5002000F05FF802BDD8
:1001B8000029F8D003B5FFF7C1FF0EBC4243891AE6
:1001C8001847C046002941D010B404004C40A4464A
:1001D80001230022002900D54942002800D54042C9
:1001E80088422CD301242407A14204D2814202D29E
:1001F80009011B01F8E7E400A14204D2814202D2BE
:1002080049005B00F8E7884201D3401A1A434C08BA
:10021800A04202D3001B5C0822438C08A04202D3F0
:10022800001B9C082243CC08A04202D3001BDC0818
:100238002243002803D01B0901D00909E3E7100075
:100248006446002C00D5404210BC704701B5002020
:1002580000F00CF802BDC0460029F7D003B5FFF73F
:10026800B3FF0EBC4243891A1847C0467047C046C0
:100278008446100062468C461900634600E0C0467A
:100288001FB50AF005F8002801D40021C8421FBD97
:1002980010B509F057FF4042013010BD10B509F004
:1002A800F7FF002801DB002010BD012010BDC0466B
:1002B80010B509F0EDFF002801DD002010BD012078
:1002C80010BDC04610B509F07FFF002801DC0020F2
:1002D80010BD012010BDC04610B509F075FF0028FB
:1002E80001DA002010BD012010BDC046002B11D13D
:1002F800002A0FD1002900D1002802D00021C943CB
:10030800080007B4024802A14018029003BDC04685
:100318005DFFFFFF03B4684601B5029809F04EF986
:10032800019B9E4602B00CBC7047C04603B47146A0
:10033800490840004900095A49008E4403BC7047E7
:10034800D0400B00D1409C46203AD340184352423B
:1003580063469340184370479140030090409C4681
:10036800203A9340194352426346D3401943704799
:100378001C2101231B04984201D3000C10391B0ACD
:10038800984201D3000A08391B09984201D3000991
:10039800043902A2105C40187047C04604030202E8
:1003A80001010101000000000000000010B5002953
:1003B80003D1FFF7DDFF203002E00800FFF7D8FF88
:1003C80010BDC04610B5064C2378002B07D1054B4D
:1003D800002B02D0044800E000BF0123237010BDA9
:1003E800100700200000000080AE0008044B10B584
:1003F800002B03D00349044800E000BF10BDC046ED
:10040800000000001407002080AE000880B500AF8F
:1004180008F0EAFF054B180001F062FE00F071FBDE
:1004280000F0C0F900231800BD4680BD98AE000852
:1004380080B500AF0C4B180001F0F0FB02000B4B2D
:100448001A600A4B1B68002B04D1094B15211800B0
:1004580001F084FB054B1B680421180001F012FC15
:10046800C046BD4680BDC046B0AE00082C0700207F
:100478003CAF000880B500AF00F0AEFB0200FA23E5
:1004880099001000FFF794FE0B001A00FA235B0096
:100498009A4206D2074B1B680121180001F032FC72
:1004A80005E0044B1B680021180001F02BFCC04636
:1004B800BD4680BD2C07002080B586B000AF002364
:1004C8007B616BE0394A7B691B01D31808331A68D2
:1004D800A023DB059A420CD1354B5A6B344B0121D2
:1004E8000A435A63324B5B6B012213403B613B6901
:1004F80040E02E4A7B691B01D31808331B682D4A3C
:1005080093420CD12A4B5A6B294B02210A435A6356
:10051800274B5B6B02221340FB60FB682AE0234AEF
:100528007B691B01D31808331B68234A93420CD1FB
:100538001F4B5A6B1E4B04210A435A631C4B5B6BBF
:1005480004221340BB60BB6814E0184A7B691B0196
:10055800D31808331B68194A93420BD1144B5A6BB2
:10056800134B08210A435A63114B5B6B0822134053
:100578007B607B680D4B7A691201D0580B4A7B6906
:100588001B01D318043319687B691A01074BD31868
:100598000B4A01F0F3FA7B6901337B617B69012B1C
:1005A80090D9C046C046BD4606B080BD00000020B8
:1005B800001002400004005000080050000C0050D9
:1005C80060AF000890B589B000AF78607B689B6821
:1005D800FB6108243B19180014231A00002101F0BC
:1005E800D9FD21007B1801225A607B1800229A60ED
:1005F800FB699B891A007B181A607B180022DA6055
:10060800FB699B687A181100180000F001FBFB6970
:100618009868FB699B890022190000F07AFCC046A3
:10062800BD4609B090BD000090B589B000AF7860B4
:100638000A00FB1C1A707B68002B04D1334B5A212B
:10064800180001F08BFAFB1C1B78042B04D92F4BE4
:100658005B21180001F082FA7B689B68FB61082423
:100668003B19180014231A00002101F093FDFB1C0C
:100678001B78002B06D13B1900225A603B19002237
:100688009A602EE0FB1C1B78012B07D108217B18F0
:1006980000225A607B1801229A6022E0FB1C1B781A
:1006A800022B07D108217B1800225A607B180222EE
:1006B8009A6016E0FB1C1B78032B07D108217B18D6
:1006C80001225A607B1800229A600AE0FB1C1B7802
:1006D800042B06D108217B1811225A607B180122AD
:1006E8009A60FB699B891A0008217B181A607B189D
:1006F8000022DA60FB699B687A181100180000F084
:1007080087FAC046BD4609B090BDC04648AF00084C
:10071800B0B584B000AF78607B68002B04D10F4B74
:100728007821180001F01AFA7B689B68FB60FB6867
:100738009A68FB689B890B257C191900100000F04A
:10074800CBFB030023707B191B78013B5A425341B2
:10075800DBB21800BD4604B0B0BDC04648AF0008C3
:1007680080B584B000AF78600A00FB1C1A707B6803
:10077800002B04D10A4B8321180001F0EFF97B68A4
:100788009B68FB60FB689868FB689989FB1C1B7871
:100798001A0000F0BEFBC046BD4604B080BDC0468E
:1007A80048AF000880B582B000AF00F01DF800F037
:1007B8007FF8FB1D00221A700AE0FB1D1B785BB254
:1007C800180000F0E9F8FB1D1A78FB1D01321A70B9
:1007D800FB1D1B78034A127852B29342EDDD00F0FC
:1007E80031F9FCE72000002080B584B000AF2B4B26
:1007F800FB60FB681C3B7B607B683B603B681B685D
:10080800274A934207D13B689B69254A934202D104
:100818003B68FB60EDE7234BFA681A600023BB6076
:10082800204B1968BA681300DB009B1A9B00CB1891
:100838001B681B4A93422AD11A4B1968BA681300DD
:10084800DB009B1A9B00CB189B69154A93421ED16B
:10085800144B1968BA681300DB009B1A9B00CB186D
:1008680011229A56104B1B785BB29A420BDD0D4B46
:100878001968BA681300DB009B1A9B00CB18112279
:100888009A56094B1A70BB680133BB60C8E7074B1F
:10089800BA681A60C046BD4604B080BD3CB70008BF
:1008A800A5A5A5A56007002020000020640700205A
:1008B80080B586B000AF324B7B617B691C3BFB6027
:1008C800FB68BB60BB681B682E4A934207D1BB68B4
:1008D8009B692C4A934202D1BB687B61EDE72A4BA6
:1008E8007A691A6000233B61274B19683A6913003B
:1008F800DB009B1A9B00CB181B68224A934238D115
:10090800214B19683A691300DB009B1A9B00CB182E
:100918009B691C4A93422CD11B4B19683A691300F6
:10092800DB009B1A9B00CB185B69184A934204D9D9
:10093800174B6421180001F011F9134B19683A6933
:100948001300DB009B1A9B00CB18DB687B6000F070
:1009580043F90D4B19683A691300DB009B1A9B0099
:10096800CB185B69C2187B681A603B6901333B612D
:10097800BAE7084B3A691A60C046BD4606B080BD62
:1009880074B70008EFBEEFBE6807002000C87E9A63
:1009980070AF00086C07002080B584B000AF02007B
:1009A800FB1D1A700023FB603CE0234B1968FA68B2
:1009B8001300DB009B1A9B00CB185B7C5BB2FA1D13
:1009C800127852B29A422AD11B4B1968FA6813005E
:1009D800DB009B1A9B00CB181B7C01225340DBB227
:1009E800002B1CD0FB1D1B785BB201330DD0124BC2
:1009F8001968FA681300DB009B1A9B00CB185A6829
:100A08000E4B1100180001F0F5FA0B4B1968FA6843
:100A18001300DB009B1A9B00CB189B689847FB6868
:100A28000133FB60064B1B68FA689A42BDD3C04687
:100A3800C046BD4604B080BD600700200CAF00086A
:100A48006407002080B584B000AF0023FB6041E05C
:100A5800254B1968FA681300DB009B1A9B00CB181A
:100A6800DB68BB6000F0B8F803007B60BB681B68FC
:100A78007A689A4206D3BB681B687A68D31A1B4AFD
:100A880093420BD9BB681B687A689A421FD2BB682D
:100A98001A687B68D31A164A934218D9BB68196832
:100AA800114B1868FA681300DB009B1A9B00C318E7
:100AB8005B69CA18BB681A600B4B1968FA6813009F
:100AC800DB009B1A9B00CB189B689847CAE7FB681A
:100AD8000133FB60074B1B68FA689A42B8D3C046DB
:100AE800C046BD4604B080BD68070020FFC77E9A97
:100AF80000C87E9A6C07002080B500AFC046BD468E
:100B080080BD80B500AF00F0AFFF00F005F8FFF73B
:100B1800D3FCC046BD4680BD90B593B000AF142449
:100B28003B19180034231A00002101F033FB3B1D48
:100B3800180010231A00002101F02CFB80239B00D1
:100B4800180000F003FA3B1902221A603B198022B0
:100B58005200DA6021007B1800221A617B184022BB
:100B68005A617B180222DA617B1802221A627B180A
:100B780000225A627B1808229A627B18802292020D
:100B8800DA627B18802292051A637B18180000F03D
:100B98001DFA031E01D000F019F83B1D07221A6048
:100BA8003B1D02225A603B1D00229A603B1D002219
:100BB800DA603B1D0221180000F018FD031E01D069
:100BC80000F004F8C046BD4613B090BD80B500AF34
:100BD80072B6C046C046FDE780B500AF024B1B6841
:100BE8001800BD4680BDC0467007002080B500AF24
:100BF800034B1B685A1C024B1A60C046BD4680BD99
:100C08007007002080B500AFC046BD4680BD00001B
:100C180080B586B000AF7860396000237B6147E11A
:100C28003B681B6801217A6991400A001340FB6008
:100C3800FB68002B00D138E13B685B680322134056
:100C4800012B05D03B685B6803221340022B30D18F
:100C58007B689B683B617B695B0003229A401300B9
:100C6800DA433B6913403B613B68DA687B695B00A8
:100C78009A4013003A6913433B617B683A699A606A
:100C88007B685B683B6101227B699A401300DA4309
:100C98003B6913403B613B685B681B0901221A40B2
:100CA8007B699A4013003A6913433B617B683A6950
:100CB8005A603B685B6803221340032B17D07B689C
:100CC800DB683B617B695B0003229A401300DA43CF
:100CD8003B6913403B613B689A687B695B009A40BB
:100CE80013003A6913433B617B683A69DA603B68F1
:100CF8005B6803221340022B23D17B69DA087B68E7
:100D080008329200D3583B617B69072213409B004D
:100D18000F229A401300DA433B6913403B613B685A
:100D28001A697B6907210B409B009A4013003A69B6
:100D380013433B617B69DA087B68083292003969A2
:100D4800D1507B681B683B617B695B0003229A403A
:100D58001300DA433B6913403B613B685B6803223D
:100D68001A407B695B009A4013003A6913433B6160
:100D78007B683A691A603B685A68C0239B02134033
:100D880000D192E0504A7B699B0818339B009B581E
:100D98003B617B6903221340DB000F229A4013005A
:100DA800DA433B6913403B617A68A023DB059A422A
:100DB80013D07B68454A93420DD07B68444A9342DE
:100DC80007D07B68434A934201D1032306E00523F9
:100DD80004E0022302E0012300E000237A690321F2
:100DE8000A40D20093403A6913433B6136497B6914
:100DF8009B0818339B003A695A50334B1B683B6178
:100E0800FB68DA433B6913403B613B685A688023BF
:100E18005B03134003D03A69FB6813433B612A4BD9
:100E28003A691A60284B5B683B61FB68DA433B69A7
:100E380013403B613B685A6880239B03134003D0EF
:100E48003A69FB6813433B611F4B3A695A601E4A73
:100E58008423D3583B61FB68DA433B6913403B6109
:100E68003B685A6880239B02134003D03A69FB68A9
:100E780013433B61144984223B698B50124A8023F7
:100E8800D3583B61FB68DA433B6913403B613B68DD
:100E98005A6880235B02134003D03A69FB68134306
:100EA8003B61094980223B698B507B6901337B6137
:100EB8003B681A687B69DA40131E00D0B0E6C0466A
:100EC800C046BD4606B080BD001802400004005070
:100ED80000080050000C005080B584B000AF786066
:100EE8000A00BB1C1A807B681B69BA1C1288134055
:100EF80004D00F23FB1801221A7003E00F23FB18FC
:100F080000221A700F23FB181B781800BD4604B086
:100F180080BD80B582B000AF786008001100BB1CAE
:100F2800021C1A807B1C0A1C1A707B1C1B78002B65
:100F380004D0BB1C1A887B689A6103E0BB1C1A8822
:100F48007B689A62C046BD4602B080BD80B584B059
:100F580000AF7860194B1B68194A13401900174BEA
:100F68007A680A431A607A6880239B009A421FD1E4
:100F7800144B1A6813005B009B185B001249180099
:100F8800FFF7DAF803000133FB6008E0FB68002B89
:100F980003D0FB68013BFB6001E0032309E0074B3A
:100FA8005A698023DB001A408023DB009A42EDD087
:100FB80000231800BD4604B080BDC0460070004044
:100FC800FFF9FFFF2400002040420F0080B588B0E1
:100FD80000AF78607B68002B01D10123F3E27B68C6
:100FE8001B680122134000D17CE0C34B9B68382268
:100FF8001340BB61C04BDB68032213407B61BB69B4
:10100800102B02D17B69032B02D0BB69082B0BD1B3
:10101800B94B1A6880239B02134062D07B685B68D7
:10102800002B5ED10123CEE27B685A6880235B02E5
:101038009A4207D1B04B1A68AF4B802149020A4344
:101048001A6020E07B685A68A023DB029A420ED11E
:10105800A94B1A68A84B8021C9020A431A60A64BFB
:101068001A68A54B802149020A431A600BE0A24B7B
:101078001A68A14BA1490A401A609F4B1A689E4BF7
:101088009F490A401A607B685B68002B14D000F007
:101098005BFD03003B6108E000F056FD02003B6980
:1010A800D31A642B01D903238DE2934B1A6880234A
:1010B8009B021340F0D015E000F046FD03003B61B1
:1010C80008E000F041FD02003B69D31A642B01D906
:1010D800032378E2884B1A6880239B021340F0D1DF
:1010E80000E0C0467B681B680222134000D199E0EB
:1010F800814B9B6838221340BB617F4BDB6803221E
:1011080013407B61BB69102B02D17B69022B02D093
:10111800BB69002B35D1784B1A688023DB0013405C
:1011280005D07B68DB68002B01D101234BE2724BB1
:101138005B68744A134019007B685B691A026E4B3E
:101148000A435A60BB69002B12D16B4B1B686E4A6D
:10115800134019007B681A69674B0A431A60664B8B
:101168001B68DB0A07221340684ADA40684B1A609A
:10117800684B1B68180000F09DFC031E51D001232A
:1011880021E27B68DB68002B30D05B4B1B685E4A32
:10119800134019007B681A69574B0A431A60564B6B
:1011A8001A68554B802149000A431A6000F0CCFCAC
:1011B80003003B6108E000F0C7FC02003B69D31A5A
:1011C800022B01D90323FEE14B4B1A688023DB0075
:1011D8001340F0D0484B5B684A4A134019007B68BB
:1011E8005B691A02444B0A435A601BE0424B1A6877
:1011F800414B49490A401A6000F0A6FC03003B61D4
:1012080008E000F0A1FC02003B69D31A022B01D9C7
:101218000323D8E1384B1A688023DB001340F0D150
:1012280000E0C0467B681B680822134047D0324B59
:101238009B6838221340182B0AD12F4B1B6E0222B1
:1012480013403CD07B689B69002B38D10123BAE15D
:101258007B689B69002B19D0274B1A6E264B0121FE
:101268000A431A6600F070FC03003B6108E000F0D6
:101278006BFC02003B69D31A022B01D90323A2E1BC
:101288001D4B1B6E02221340F1D018E01A4B1A6E48
:10129800194B01218A431A6600F056FC03003B6192
:1012A80008E000F051FC02003B69D31A022B01D977
:1012B800032388E1104B1B6E02221340F1D17B6897
:1012C8001B680422134000D1C6E01F23FB1800222C
:1012D8001A70094B9B6838221340202B1ED1064BED
:1012E800DB6D0222134000D1B6E07B689B68002BBF
:1012F80000D0B1E0012366E100100240FFFFFEFFCD
:10130800FFFFFBFFFF80FFFFFFC7FFFF0024F40084
:101318002400002028000020FFFEFFFFAC4BDA6B02
:1013280080235B05134001D1012300E00023002B3B
:1013380011D0A74BDA6BA64B802149050A43DA6323
:10134800A34BDA6B80235B051340FB60FB681F230C
:10135800FB1801221A709F4B1A6880235B00134008
:101368001AD19C4B1A689B4B802149000A431A608A
:1013780000F0EAFB03003B6108E000F0E5FB020037
:101388003B69D31A022B01D903231CE1914B1A683C
:1013980080235B001340F0D07B689B68012B06D14B
:1013A8008B4BDA6D8A4B01210A43DA651CE07B68B6
:1013B8009B68052B0CD1864BDA6D854B04210A43BB
:1013C800DA65834BDA6D824B01210A43DA650BE05B
:1013D8007F4BDA6D7E4B01218A43DA657C4BDA6DEF
:1013E8007B4B04218A43DA657B689B68002B14D009
:1013F80000F0AAFB03003B6109E000F0A5FB020036
:101408003B69D31A744A934201D90323DBE0704B3A
:10141800DB6D02221340F0D013E000F095FB0300CF
:101428003B6109E000F090FB02003B69D31A6A4A6D
:10143800934201D90323C6E0654BDB6D02221340BA
:10144800F0D11F23FB181B78012B05D1604BDA6BF9
:101458005F4B62490A40DA637B68DB69002B00D185
:10146800B0E05B4B9B6838221340102B00D178E02A
:101478007B68DB69022B53D1554B1A68544B58498A
:101488000A401A6000F060FB03003B6108E000F0CE
:101498005BFB02003B69D31A022B01D9032392E0BC
:1014A8004B4B1A6880239B041340F0D1484BDB68F0
:1014B8004C4A134019007B681A6A7B685B6A1A43B6
:1014C8007B689B6A1B021A437B68DB6A1A437B684A
:1014D8001B6B1A433E4B0A43DA603D4B1A683C4B80
:1014E800802149040A431A60394BDA68384B802155
:1014F80049050A43DA6000F027FB03003B6108E076
:1015080000F022FB02003B69D31A022B01D9032306
:1015180059E02F4B1A6880239B041340F0D051E008
:101528002B4B1A682A4B2E490A401A6000F00CFB14
:1015380003003B6108E000F007FB02003B69D31A97
:10154800022B01D903233EE0214B1A6880239B0418
:101558001340F0D11E4BDA681D4B23490A40DA606C
:1015680030E07B68DB69012B01D101232BE0184BAC
:10157800DB687B617B6903221A407B681B6A9A429D
:101588001ED17B6970221A407B685B6A9A4217D128
:101598007A69FE23DB011A407B689B6A1B029A4228
:1015A8000ED17A69F8239B031A407B68DB6A9A425A
:1015B80006D17B695B0F5A077B681B6B9A4201D087
:1015C800012300E000231800BD4608B080BDC046D6
:1015D800001002400070004088130000FFFFFFEF7A
:1015E800FFFFFFFE8C80C11FFCFFFEEF80B584B0BB
:1015F80000AF786039607B68002B01D10123E9E0F6
:10160800764B1B68072213403A689A421ED9734BDF
:101618001B68072293431900704B3A680A431A6003
:1016280000F092FA0300FB6009E000F08DFA020076
:10163800FB68D31A6A4A934201D90323CAE0674B6D
:101648001B68072213403A689A42EED17B681B68F0
:101658000222134015D07B681B680422134006D071
:10166800604B9A685F4BE021C9010A439A605D4B61
:101678009B685D4A134019007B689A68594B0A4376
:101688009A607B681B680122134057D07B685B68AF
:10169800012B07D1534B1A6880239B0213402BD18F
:1016A800012397E07B685B68022B07D14D4B1A68D2
:1016B80080239B0413401FD101238BE07B685B6868
:1016C800002B07D1474B1A688023DB00134013D146
:1016D80001237FE07B685B68032B06D1414B1B6EBF
:1016E8000222134008D1012374E03E4BDB6D022235
:1016F800134001D101236DE03A4B9B6807229343C5
:1017080019007B685A68374B0A439A6000F01CFA44
:101718000300FB6009E000F017FA0200FB68D31A27
:101728002F4A934201D9032354E02E4B9B68382259
:101738001A407B685B68DB009A42ECD1274B1B6838
:10174800072213403A689A421ED2244B1B6807228C
:1017580093431900214B3A680A431A6000F0F4F9E0
:101768000300FB6009E000F0EFF90200FB68D31A00
:101778001B4A934201D903232CE0184B1B6807220C
:1017880013403A689A42EED17B681B6804221340E2
:1017980009D0144B9B68154A134019007B68DA6816
:1017A800104B0A439A6000F029F801000D4B9B6822
:1017B8001B0A0F221A400E4B9200D3581F221340C7
:1017C8000A00DA400B4B1A600B4B1B68180000F03C
:1017D80071F903001800BD4604B080BD0020024026
:1017E8008813000000100240FFF0FFFFFF8FFFFF8B
:1017F80088AF0008240000202800002080B586B0AB
:1018080000AF3C4B9B68382213400FD1394B1B6803
:10181800DB0A0722134001229A4013003B60396813
:101828003548FEF789FC03003B615DE0314B9B685E
:1018380038221340082B02D1304B3B6154E02D4B2A
:101848009B6838221340102B38D12A4BDB680322BF
:101858001340FB60274BDB681B0907221340013349
:10186800BB60FB68032B0DD1B9682448FEF764FC04
:10187800030019001F4BDB681B0A7F2213404B43F0
:101888007B610DE0B9681C48FEF756FC030019009F
:10189800184BDB681B0A7F2213404B437B61C04611
:1018A800144BDB685B0F0722134001337B607968B8
:1018B8007869FEF741FC03003B6115E00D4B9B681E
:1018C80038221340202B03D180231B023B610BE0FD
:1018D800084B9B6838221340182B03D1FA23DB01ED
:1018E8003B6101E000233B613B691800BD4606B03F
:1018F80080BDC046001002400024F40000127A00A7
:1019080090B583B000AF02003960FB1D1A70FB1D53
:101918001B787F2B28D82F4AFB1D1B785BB29B08AE
:10192800C0339B009B58FA1D1278110003220A400D
:10193800D200FF2191400A00D2431A4011003B68AF
:101948009B01FF221A40FB1D1B781800032303404C
:10195800DB009A401F48FB1D1B785BB29B080A43BB
:10196800C0339B001A5031E01B4AFB1D1B7819003D
:101978000F230B40083B9B0806339B00D318043306
:101988001B68FA1D1278110003220A40D200FF21B9
:1019980091400A00D2431A4011003B689B01FF2284
:1019A8001A40FB1D1B78180003230340DB009A40F4
:1019B8000948FB1D1B781C000F232340083B9B088C
:1019C8000A4306339B00C31804331A60C046BD4659
:1019D80003B090BD00E100E000ED00E080B582B00A
:1019E80000AF78607B685A1E80235B049A4201D35B
:1019F800012310E00A4B7A68013A5A6001235B42DE
:101A080003211800FFF77CFF054B00229A60044B66
:101A180007221A6000231800BD4602B080BDC046E8
:101A280010E000E080B584B000AFB9607A600F21A3
:101A38007B18021C1A70BA687B181B785BB21100FD
:101A48001800FFF75DFFC046BD4604B080BD80B5F5
:101A580082B000AF78607B681800FFF7BFFF030013
:101A68001800BD4602B080BD80B582B000AFFB1D36
:101A780000221A700B4B1A680A4B802149000A434E
:101A88001A60032000F016F8031E03D0FB1D012284
:101A98001A7001E000F008F8FB1D1B781800BD461D
:101AA80002B080BD0020024080B500AFC046BD46F0
:101AB80080BD000090B585B000AF78600F23FB189B
:101AC80000221A701D4B1B78002B2BD01C4B1C6856
:101AD8001A4B1B781900FA239800FEF72DFB030018
:101AE80019002000FEF728FB03001800FFF7AFFFDE
:101AF800031E12D17B68032B0AD8796801235B4245
:101B080000221800FFF78EFF0E4B7A681A600DE06E
:101B18000F23FB1801221A7008E00F23FB1801227B
:101B28001A7003E00F23FB1801221A700F23FB1809
:101B38001B781800BD4605B090BDC0462C0000209B
:101B4800240000202800002080B500AF024B1B684D
:101B58001800BD4680BDC0467407002080B582B01D
:101B680000AF786039603A687968034B180000F074
:101B780041FAC046FDE7C04620AF000880B584B0F2
:101B880000AFF860B9607A603B60FB68002B04D155
:101B9800204B11211800FFF7E1FFBB68002B04D18F
:101BA8001C4B12211800FFF7D9FF7B68002B04D1CA
:101BB800184B13211800FFF7D1FF3B68002B04D105
:101BC800144B14211800FFF7C9FFFB68BA68DA60E4
:101BD800FB683A689A60FB687A685A600E4B1A6824
:101BE800FB681A600C4BFA681A60FB685B681B6834
:101BF800FA6810009847FB685B689B68FA681000F1
:101C0800984703001A00FB685A74C046BD4604B0E2
:101C180080BDC046C8AF00087807002080B584B0F2
:101C280000AF78607B68002B04D1144B2121180089
:101C3800FFF794FF124B1B68002B04D10F4B222196
:101C48001800FFF78BFF0E4B1B68FB600BE0FB686F
:101C5800DB687A6811001800FEF72AFA031E06D01E
:101C6800FB681B68FB60FB68002BF0D100E0C046F6
:101C7800FB681800BD4604B080BDC046C8AF000868
:101C88007807002080B582B000AF78600A00FB1C9E
:101C98001A707B68002B04D10A4B2E211800FFF71D
:101CA8005DFF7B68FA1C12781A747B685B685B6856
:101CB800FA1C11787A6810009847C046BD4602B0F1
:101CC80080BDC046C8AF000880B582B000AF78605C
:101CD8007B68002B04D10A4B35211800FFF73EFF23
:101CE8007B685B689B687A681000984703001A0055
:101CF8007B685A747B685B7C1800BD4602B080BD67
:101D0800C8AF000880B582B000AF78600A00FB1C3D
:101D18001A707B68002B04D1194B3C211800FFF77F
:101D28001DFF7B681B7C032B08D07B681B7C042B66
:101D380004D0134B3D211800FFF710FF7B685B7C34
:101D4800FA1C12789A4216D07B685B68DB68FA1C2A
:101D580011787A68100098477B681800FFF7B4FF7D
:101D68007B685B7CFA1C12789A4204D0044B4221AF
:101D78001800FFF7F3FEC046BD4602B080BDC0465E
:101D8800C8AF00080D488546FEF73CFF0C480D49D2
:101D98000D4A002302E0D458C4500433C4188C42BE
:101DA800F9D30A4A0A4C002301E013600432A24224
:101DB800FBD300F087FAFEF729FBFEE7009000202E
:101DC800000000201007002090B70008100700202E
:101DD800400B0020FEE7000010B5010000230022A0
:101DE800002000F0DDFA10BD10B5034A034904488D
:101DF80000F0DEF810BDC046300000206951000830
:101E08004000002041680B4B10B50400994201D0F6
:101E180003F0A6F9A168084B994202D0200003F00C
:101E28009FF9E168054B994202D0200003F098F928
:101E380010BDC0467C070020E40700204C080020A5
:101E4800F8B5CE4647463B4C3B4B3C4A2000002564
:101E580080B51A600423082200215C302560656083
:101E6800A560656625616561A561E36000F092F98A
:101E78002000334B334F344E99462362334B58304E
:101E88009846A762E6626362E46100F053FACC23E5
:101E9800E5502F4B20006367802300210822C430BF
:101EA800E550A566E5662567A567E56700F072F960
:101EB800220084236832E2504A460433E250424604
:101EC80020000433E2500433E750C0300433E650B6
:101ED80000F030FAD0232000E5500433E5500433F5
:101EE800E5501C4A5C33E550583BE2500433E5505A
:101EF8002D300433E550002104330822FF30E5502B
:101F080000F048F92200EC23D032E2504A4604336C
:101F1800E250200042460433E25029300433E750AF
:101F2800FF300433E65000F005FAC0BCB946B046AD
:101F3800F8BDC0467C070020B4080020F11D000849
:101F4800FD200008652100089121000825210008CE
:101F5800090001001200020070B50400094D2800B4
:101F680000F0ECF9636B002B05D1074B6363074B5B
:101F78001B68002B03D0280000F0E2F970BDFFF7C2
:101F88005FFFF8E7C40800200D1E0008B408002011
:101F980010B5024800F0D2F910BDC046C4080020B0
:101FA80010B5024800F0CCF910BDC046C4080020A6
:101FB800F8B54746CE46884680B5814617000026C4
:101FC8007D68BC68013D0DD4A389012B07D90E2279
:101FD800A35E013303D021004846C0470643683456
:101FE800013DF1D23F68002FEAD13000C0BCB946AC
:101FF800B046F8BD0FB400B5064983B004AB086815
:1020080004CB8168019300F073FE03B008BC04B0F0
:102018001847C0463C00002070B5050088B008008D
:102028000C0000F08FF904AB2B4A019302230692AF
:10203800012202936B6B0590013004940792AC68FF
:102048000390002B43D00126636E0C21625E1E4272
:102058001BD0910423D4802189010A43A2811F4AFD
:1020680013406366280001AA210003F0B1F9421E5B
:1020780090410A254042636E0543DB0702D4A389D9
:102088009B0512D5280008B070BD910511D59104A3
:10209800E1D55B131E42E5D001256D42EFE75B13E6
:1020A8001E42DFD001256D42ECE7A06D00F048F933
:1020B800E8E7A06D00F042F90C23E25E636E91043C
:1020C800C9D55A131642CDD001256D42D5E728004F
:1020D800FFF742FFB7E7C046DCAF0008FFDFFFFFAE
:1020E80010B5034B01001868FFF796FF10BDC046F6
:1020F8003C00002070B50C000E25495F00F0BAF8CE
:10210800002803DB236D1B18236570BDA389024AD1
:102118001340A381F9E7C046FFEFFFFFF8B50C00B5
:102128001F000C23C95E05001600CB050AD40A4B14
:10213800320019402800A1810E23E15E3B0000F027
:10214800ADF8F8BD0E23E15E0022022300F07EF810
:102158000C23E15EEBE7C046FFEFFFFF70B50C0014
:102168000E25495F00F072F80C22A35E421C05D0D0
:102178008022520113432065A38170BD014A134098
:10218800FAE7C046FFEFFFFF10B50E23C95E00F067
:102198004BF810BDF0B5830741D0050004000327B4
:1021A800861804E0297001353B4204D01C00631CEA
:1021B800B442F7D1F0BD013A8218121B032A25D97F
:1021C800FF240C4025022D192C042D190F2A28D97B
:1021D8001C0013002600103B1B091B0110369B191D
:1021E80025606560A560E5601034A342F8D10F242E
:1021F8000C26144016402200002E07D0A208920098
:10220800D21820C39342FCD103222240002AD1D005
:10221800C9B29A18197001339A42FBD1CAE7030070
:10222800CCE71400EAE7C046002370B5064C050069
:102238000800236006F0DAFE431C00D070BD236856
:10224800002BFBD02B60F9E7B808002070B504001C
:10225800080011001A000023054D2B6006F06CFEE3
:10226800431C00D070BD2B68002BFBD02360F9E71E
:10227800B808002070B50400080011001A000023F7
:10228800054D2B6006F0B4FD431C00D070BD2B68D3
:10229800002BFBD02360F9E7B808002070B50400D4
:1022A800080011001A000023054D2B6006F048FEB7
:1022B800431C00D070BD2B68002BFBD02360F9E7CE
:1022C800B808002070B50D4B0D4D5E1BB610AB4223
:1022D80005D0002408CD01349847A642FAD808F062
:1022E800CBFD084B084D5E1BB610AB4205D0002451
:1022F80008CD01349847A642FAD870BDF8B6000850
:10230800F8B6000800B70008F8B6000870B5074C22
:10231800074D641BA41005D0013CA300EB58984757
:10232800002CF9D108F0AEFD70BDC04604B7000816
:1023380000B700087047C0467047C0467047C0469F
:102348007047C04610B583070AD00300032102E096
:1023580001330B4205D01A78002AF9D1181A10BD9A
:10236800030019680C4A0D4C8A188A4322420FD17F
:102378005968094A04338A188A43224208D159689D
:10238800054A04338A188A432242F1D000E0013317
:102398001A78002AFBD1E1E7FFFEFEFE80808080EC
:1023A800F0B5D6464F4646469846244BC0B506007B
:1023B80018689A460F009146FFF7C0FF204B1D682A
:1023C800002D32D053466C6818681F2C30DC002E64
:1023D8000CD1631C0234A4006B606751FFF7B0FF97
:1023E8000020E0BCBA46B146A846F0BD494688225E
:1023F800A300EB189950C42149008C46AC446146AF
:10240800873AA240096891461143624611608421C7
:10241800424649005A50022EDBD129004A468D31E6
:10242800FF310B6813430B60D3E7064D1D60C9E706
:10243800FFF786FF01204042D3E7C0468001002015
:10244800580A0020C8080020034B10B5002B02D002
:102458000248FFF7C1FC10BD00000000152300086A
:10246800F0B5C646060000B508200D0003F04AFA8C
:102478000400300000F02CFC234B210098469B6898
:102488005F6803239F4338001138401B0019FDF78C
:1024980053FE451E6543AC4208DC0021300003F0C2
:1024A8001FFA43469B68DB19984206D0300000F0BB
:1024B80017FC002080BCB846F0BD3000694203F02C
:1024C8000FFA01300ED0012243467F1B9B68174349
:1024D8000E4A5F60136830005B1B136000F000FC5D
:1024E8000120E7E70021300003F0FAF943469A6833
:1024F800831A0F2BDADD064C04492468001B086098
:1025080001210B435360D1E7900100205C0A0020B1
:1025180084010020F0B5D6464F46464605000C001B
:10252800C0B5002948D000F0D3FB210001270839A5
:102538004B6803209C46BB43CE18726882436046B2
:10254800384080466A4891468468B44200D17CE0AD
:102558007260B41864683C40A2464446002C30D1EE
:102568000C68A446091B8C686344A4460824A0464A
:102578008044C4455CD0CC68A04664464246E260CC
:1025880094605246002A1FD01F434F603360802258
:102598009200934230D2DA085C090123A3404468D0
:1025A80023434360D3001B189A68CB608A60996004
:1025B800D160280000F094FBE0BCBA46B146A846BA
:1025C800F0BD5246002A0FD101224B44CF18BC4619
:1025D800B468484F1A43BC425BD0F668E660B46002
:1025E8004A6062461360D2E762463A434A608022F4
:1025F800336092009342CED35C0A042C3FD89C09E6
:10260800260039343836E40004192268083C0327C8
:10261800944203D14EE09268944203D05068B84384
:102628009842F8D8D468CC608A60A160D160C0E7CD
:102638005246002A35D14B441A00B068F368174354
:10264800C36098604F608A50B3E74B441A00434612
:10265800002B06D10B68C91A8C68D218CB68E360C6
:102668009C60012313434B60234B81601B6893429A
:102678009FD8224B28001968FFF7F2FE99E7142C1F
:1026880013D9542C1DD81C0B26006F346E36E40069
:10269800BAE7E160A1604A606246CC608C60136072
:1026A80087E71F434F60336083E726005C345B365F
:1026B800E400A9E70123B610B340466833434360FA
:1026C800B1E7AA225200944205D8DC0B26007834E0
:1026D8007736E40098E70A4A944205D89C0C26000D
:1026E8007D347C36E4008FE7FE247E26A4008BE749
:1026F8009001002098010020880100208C0A002009
:1027080054050000F0B54E464546DE465746E0B54E
:102718000D000B35060085B0162D21D8102900D9DB
:10272800D4E000F0D5FA102518230221CA4FFB186F
:102738001A005C68083A944200D186E10322636873
:10274800A1689343E268CA6091600121E3185A685E
:1027580030000A435A6000F0C3FA20000830B8E09D
:1027680007239D4300D5B1E0A94200D9AEE000F0AF
:10277800AFFAFC235B009D4200D2E0E1690A00D178
:10278800AEE0042900D9A1E138239846A909884474
:102798003931CB00082252429446AF4FFB189C4473
:1027A8006346DC68A44514D0032399460B006146B0
:1027B8009C4607E0E068002A00DB40E1814200D146
:1027C80041E104004A46636893435A1B0F2AF1DD2E
:1027D80041463A003C690832944200D11EE1032088
:1027E80063688343581B0F2800DDACE13A617A61C6
:1027F8000028AADA7A68904680229200934200D391
:1028080036E1DA08580901238340404618438046D8
:10281800D300DB199A687860E360A2609C60D4609A
:1028280001208B109840404562D8434603420AD1A4
:1028380003239943434640000431034203D1400037
:1028480004310342FBD00323B3469C460E00B8462E
:102858000190F00040440100B246CB680BE06446AA
:102868005A681F00A243DB68541B0F2C00DD39E1B6
:10287800002C00DB53E19942F1D101239946CA4467
:10288800534608319B07E8D1032205E0036808385E
:10289800013E834200D013E23242F7D14346019A07
:1028A8005B68934342465360019A520001929A42F0
:1028B8001CD8002A06D119E004229146019ACA447C
:1028C800520001921342F7D05646C2E70C233360F8
:1028D800002005B0F0BCBB46B246A946A046F0BDF4
:1028E80080233F22402190469B0053E75E4647469F
:1028F8000322BC68636893439846AB4203D35B1BCF
:102908000F2B00DD8DE0230043440293534B082036
:102918001B6810335B19019302F0F4FF50490390D0
:102928000B688A46013306D08446019B4242013B2C
:102938006344134001933000019902F0D1FF030072
:102948008146013300D11CE1029B834200D916E184
:10295800444B02989B461A68019B59469C46624420
:102968000A6003990139484500D157E153461B686D
:10297800013300D15EE14B4602981B1A9B185A4658
:10298800136007234A4648461A400292184200D16B
:1029980015E10398013384469B1A019A99444A44E5
:1029A800019263440A409B1A194030008A4602F09B
:1029B80097FF431C00D158E14B46C01A030053440B
:1029C80001935B461A68012052441A604B464946F7
:1029D800BB60019B03434B60BC4213D043460F2BA3
:1029E80000D82BE107210C3B8B436168014005208F
:1029F80019436160E118486088600F2B00D93FE1F6
:102A08004B465B6818490868904200D20A6017492B
:102A18000868904200D20A604C46B4E07B68984649
:102A2800FEE6012229001343114365196160300055
:102A3800BD606B6000F054F92000083049E7A268D7
:102A4800D060826081E66146C3E6DC680231A34259
:102A580000D1BEE672E6C046900100208C0A002034
:102A6800840100205C0A0020880A0020840A0020D3
:102A78005A0A042A7CD9142A00D9B0E010005B3025
:102A880082465C32D200082040428446BA189444F8
:102A9800624692680B308146944500D186E0080072
:102AA800A2466146844602E09268914204D04C46B0
:102AB8005068A0439842F7D8D368614654469C466C
:102AC8006346A260E3609C60D460A9E6142967D9D4
:102AD800542900D98CE06E239846290B88446F311D
:102AE800CB0057E6BA4601205146844649190543AA
:102AF80050464560856847466046EB605E469D6087
:102B0800534639617961204308374860CF60300007
:102B18008F609C5000F0E4F850460830D9E6BA4679
:102B280001205E465244516801435160BA68300042
:102B3800D3609A6000F0D4F838000830C9E62B005A
:102B4800E9080833F2E56119884601218C460D43EE
:102B58004146656039617961CA608A6062460243AC
:102B68004A60E050300000F0BBF820000830B0E6C2
:102B78009A091000393238308246D20083E7BC42C5
:102B880041D0BC686368032293431A005B1BAA42C6
:102B980002D30F2B00DD44E7300000F0A1F897E6E0
:102BA8005B23984688445C31CB00F3E55346981084
:102BB80001238340404618438046786080E7019BA4
:102BC800039A4B440B40D31A194030008A4602F04E
:102BD80087FE431C00D0EFE600239A46F1E6542A0C
:102BE8002ED81A0B10006F326E308246D2004AE798
:102BF800AA235B0099422ED8DD3B9846E90B88440E
:102C08007831CB00C6E5304B9B461A68019B9C4641
:102C18005B4662441A60039B591EA7E64846084271
:102C280000D0A3E6B9684344894601210B434946CD
:102C38004B60E7E653464A461A60A2E64860ABE7AF
:102C4800AA204000824226D8DA0B1000783277306A
:102C58008246D20017E71D4B994226D87C23984616
:102C6800A90C88447D31CB0094E5019A029B9446D7
:102C78004A46083B63449B1A019300239A46A0E600
:102C8800210030000831FFF745FC5B461A68BB6835
:102C980099465B68B6E60D4882420CD89A0C10003B
:102CA8007D327C308246D200EDE6FE237E227F21F3
:102CB80090469B006EE5FE227E2092008246E2E668
:102CC80043465B68F0E5C0465C0A002054050000F6
:102CD80010B50248FFF732FB10BDC046BC08002003
:102CE80010B50248FFF72CFB10BDC046BC080020F9
:102CF800F0B5DE46454657464E46E0B5DBB0884659
:102D080093461C0010930500079002F0E5FD036848
:102D180018001C93FFF716FB1B90002D04D06B6B5B
:102D2800002B01D101F014FA434601255A6E0C21FB
:102D38005B5E154201D100F03DFE990401D500F01B
:102D4800A7FF802189010B4341468B81D1491BB2E2
:102D58000A4041464A661A0701D400F003FE42467B
:102D68001269002A01D100F0FDFD1A221A400A2A30
:102D780001D100F008FE31AB2E93002300241193FB
:102D880030932F9300231893199400231F931D93B6
:102D9800219320930B93C04B5D461393BF4B2EAFEB
:102DA8001E93434608932B7831AE002B00D1B3E035
:102DB8002C0005E063780134002B01D100F0A3FC5E
:102DC800252BF7D1631B9846AC4201D000F0A1FC3B
:102DD8002378002B00D19FE0631C0693002320AAD0
:102DE800D376012252420A920022637814000E928E
:102DF800069A013206921A00203A5A2A03D81399E1
:102E080092008A5897469946A346002B00D183E042
:102E180041AD2B70002320AAD3760F9301330C9376
:102E280000230A931A931593149301330993842367
:102E38005A461A4012925A46BC68134200D169E1B8
:102E480020ABDB7E002B23D0002290467B6820A994
:102E58001B228C46624432600122013401337260C5
:102E6800BC607B60072B01DD00F0C6FD08364346D9
:102E7800002B0DD07B6827AA32600222023401336E
:102E88007260BC607B60072B01DD00F0A9FD08368D
:102E9800129B802B01D100F04EFC0A9B0C9A9B1AC6
:102EA8009846002B00DD48E15B46DB0500D582E152
:102EB8000C9B35609C4673607B6864440133BC603E
:102EC8007B60072B00DD9BE008365B465B0706D579
:102ED8000E9B099A9D1A002D01DD00F099FD0E9BAD
:102EE800099A934200DA13000B9A94469C4463466D
:102EF8000B93002C01D000F060FC00237B600F9B3B
:102F0800002B03D00F990798FFF704FB069D31AEFD
:102F18002B78002B00D04BE7089B9846BB68002B0A
:102F280001D001F000FA00237B6000F057FC303B31
:102F380000201900069A83001B185B00C818137834
:102F48000132190030390929F5D90E90069252E755
:102F580007229946109BA346073393431A0018CAC1
:102F68001900109222001891199201222293199B9C
:102F780052425B005B08239322982399484B07F041
:102F8800E3FE002801D000F0DFFE229823990122F9
:102F9800434B5242FDF78CF9002801D000F0D4FED3
:102FA8001898199980235A469A4393460023002279
:102FB800FDF774F9002801D001F0DAFB4A4620AB8E
:102FC800DB7E472A01DC01F0C1F9364D002B01D028
:102FD80001F092FF0F9303330C9300230A931A9383
:102FE800159314930333099321E71400129A641973
:102FF800013332607560BC607B60072B00DC63E7DF
:103008003A000899079802F09BF8002800D0DDE301
:10301800BC6831AE59E7069B1B78E9E620231C43C0
:10302800069B1B78E4E699462300A3469B0601D439
:1030380000F00BFF0723109A07329A4301339C468E
:103048009444634610930CCA16921793002B00DA27
:1030580057E20A99002900DA23E180235A469A4365
:103068009346169A179B1000184300D019E10029BF
:1030780001D101F063F930231EE19946109B41AD5F
:1030880004CB20A92A7000221093A3460023CA76F5
:10309800C3E6C046FFDFFFFF3CB1000840B30008AD
:1030A800FFFFEF7FE4AF000899460023A346109C7A
:1030B80020AA20CCD3760A9B002D01D100F0A3FFD3
:1030C800002B01DA01F097F81A000021280002F01D
:1030D80027FC20AAD27E0F90002801D101F014FD10
:1030E800411BCB43DB170C9119400991002A01D0F1
:1030F8000131099100235A460F930A931A931593A5
:10310800149384231A4012925A461094BC681342AE
:1031180000D095E60E9B099A9B1A9846002B00DD75
:10312800D6E320ABDB7E002B00D08DE60A9B0C9A01
:103138009B1A9846002B00DCB6E642467B68102AAC
:1031480001DC01F0ECF810221E999246129122003F
:103158004446A8460D0003E0103C0836102C16DD46
:1031680051461032013335607160BA607B60072BBD
:10317800F2DD3A000899079801F0E2FF002800D034
:1031880024E3103CBA687B6831AE102CE8DC454675
:10319800A0461400129A44443260424601337260D9
:1031A800BC607B60072B01DD00F066FD5B460836DE
:1031B800DB0500D47CE64B46652B00DC24E318983D
:1031C800199900220023FDF763F8002801D100F0C7
:1031D8005DFCDE4B01343360012373607B68BC60A7
:1031E80001337B60072B01DD00F0C2FF0836289B06
:1031F800119A934201DB00F051FD1C9B33601B9B2D
:103208009C4673607B6864440133BC607B60072B19
:1032180001DD00F0E0FE0836119B5D1E002D00DC8C
:1032280053E67B68102D01DC01F0BAFE1022C84974
:103238009046129122000C0004E00836103D102D33
:1032480000DCD2E641461032013334607160BA6066
:103258007B60072BF1DD3A000899079801F070FFB1
:10326800002800D0B2E2BA687B6831AEE6E799463A
:103278001020230020439B0601D400F0C2FD072242
:10328800109B073393431A0018CA16931794002308
:10329800109220AAD3760A9B002B01DB00F005FDD3
:1032A8008346169B179C002C00D041E1092B00D9BE
:1032B8003EE1169B3033DBB28420632220A9091833
:1032C8008B540A9B0993002B01DC012309930122EB
:1032D8000C9220AAE725944620ABDB7E6544002BA0
:1032E80002D0099B0133099300230F931A93159376
:1032F80014939CE5109A08CA0E93002B01DB00F08A
:10330800E8FC0E9B10925B420E9304231C43069B21
:103318001B786DE599461020230020439B0601D4B5
:1033280000F056FD0723109A07329A4301339C4652
:1033380094446346109313685268002120ACE176E8
:103348000A99002921DB834901408B461900114362
:103358001ED10A9900291BD10123190001400991A6
:10336800034201D100F0D5FE8424302220A8623324
:103378000019C25400231A93159314930F9320AB8A
:10338800E7259C460C91654451E5734908408346FE
:1033980007218C465AAD614650071940DB080343A4
:1033A80018002C003031013DD20829701043F2D1A9
:1033B80001235A461A4014925A46134201D000F08B
:1033C80020FC0A9A5AAB5B1B0C9309929A4201DAC9
:1033D80000F0B3FC00231A9315930F9327E50823F5
:1033E8001C43069B1B7803E5069B1B786C2B01D1BD
:1033F80000F007FE10221443FAE4069B1B78682BA2
:1034080001D100F0F5FD40221443F1E400221099A7
:1034180052480A9DA34620AC08C9A083E276002D35
:1034280001DA00F02BFD80205C4684437E3804439B
:10343800A346002B01D000F0B2FE002D01D100F010
:1034480088FF842420A8633330320019C25420AB8B
:103458009C46002314937833994600230995E72561
:103468001A9315930F9301331091654400210C931F
:1034780000F044FD994623009B0601D500F0B8FCF6
:103488002200109908C9D20601D501F0EEFB2200EE
:10349800520601D400F030FF002220009BB21091A8
:1034A8004BE7220010990B1D920601D500F098FCFD
:1034B8002200D20601D500F068FE2200520601D58E
:1034C80000F067FF2200920501D400F05EFE109A1A
:1034D8000B99126810931170069D19E599461022F0
:1034E800230022439B0601D500F088FC109B191D80
:1034F800109B93461B6810911693DB17179300D403
:10350800A7E51699179A00244B42944116931794ED
:103518002D2320AAD3760A9B002B00DAC1E680234C
:103528005A469A439346169B179C002C00D1BDE639
:1035380080235A46DB001A40002311935AABB24647
:103548000F979846169E179F0C9218E020B0000817
:1035580040B300087FFBFFFFFFFBFFFF3078000050
:10356800099639000A2200230998FCF7BFFE3C009F
:10357800A84606000F00002C01D101F0E8F90A2244
:10358800002330003900FCF7B1FE4546119B013D90
:10359800013311930C9B30322A70002BE0D01D9B15
:1035A800119A1B789342DBD1FF2AD9D0002F01D082
:1035B80001F05AF8092E01D901F056F80A9A5AABC7
:1035C8005B1B169617970C9356460F9F09929A42C3
:1035D80000DA099320ABDB7E81E699462300A346F7
:1035E8009B0601D500F007FC102320001099184015
:1035F80004C9234201D001F03BFB40235D461C4037
:103608002B4201D100F05AFE93B216930023179370
:1036180020ABD8760A9B002B08DB80235A469A43B6
:10362800169B9346002B01D100F001FC109138E65F
:10363800079B1800994602F04FF943681800209339
:10364800FEF780FE80462190484602F045F9414643
:103658008268069B1D921B78002901D1FFF7C8FBE1
:10366800002A01D1FFF7C4FB1278002A01D1FFF725
:10367800BFFB8022D2001443FFF7BAFB01231C438F
:10368800069B1B78FFF7B4FB20AA069BD27E1B780B
:10369800002A01D0FFF7ACFB203220A9CA76FFF739
:1036A800A7FB80231C43069B1B78FFF7A1FB069B07
:1036B8005A1C1B7894462A2B01D101F0BFFC190033
:1036C800303910000022092901D901F087FA930046
:1036D8009B185B005A180378013019003039092902
:1036E800F5D906900A92002A01DBFFF784FB012234
:1036F80052420A92FFF77FFB2B2320AAD376069B20
:103708001B78FFF775FB631B9846AC4201D1FFF7A6
:1037180003FC43467360BB6835604344BB607B6809
:1037280001337B60072B00DDC5E008360B9B434463
:103738000B93FFF74DFB0E9B099A9B1A9846002B9B
:1037480001DCFFF7AAFB42467B68102A01DC01F086
:10375800AFFA1022CB499246129122004446A8465D
:103768000D0003E0103C0836102C15DD51461032D0
:10377800013335607160BA607B60072BF2DD3A0077
:103788000899079801F0DCFC00281FD1103CBA68A2
:103798007B6831AE102CE9DC4546A0461400129A2D
:1037A80044443260424601337260BC607B60072B40
:1037B80000DDC9E30836FFF770FB3A00089907985F
:1037C80001F0BEFC002801D1FFF797FB089B0F9979
:1037D8009846002902D00798FEF79CFE43460C2223
:1037E8009B5E4246526ED20703D49A0501D400F07C
:1037F80087FC5B0600D5EFE00B985BB0F0BCBB46DE
:10380800B246A946A046F0BD7B680134013398460C
:1038180008239946119BB1443560012B00DCD6E1A1
:10382800012373604346BC607B60072B01DD00F019
:103838002FFC4B461C9A1A604A461B9B9C465360B9
:10384800012364449C46E0444346BC607B60072BEC
:1038580001DD00F02DFC08239C46E144119B002269
:10386800189819995E1E0023FCF712FD002800D055
:10387800D9E101239C464B46E044013560C34346E9
:10388800A419BC607B60072B00DDACE108239C46D3
:10389800E1444A462AAB13601F9B9C46536043464B
:1038A80064440133BC607B60072B01DDFFF7A8FB94
:1038B8004E46FFF709FB3A000899079801F040FCCB
:1038C800002801D001F0A2FA31AE2FE702231293AB
:1038D8004146BA687B68102901DC01F024F96A497D
:1038E80028008A464546310010245646804603E0A3
:1038F800103D0831102D15DD103201330E604C607B
:10390800BA607B60072BF3DD3A000899079801F04D
:1039180017FC002800D059E7103DBA687B6831A928
:10392800102DE9DC4046B246A8460E000500514677
:10393800316041464244013314007160BA607B60D3
:10394800072B00DDEEE320AAD27E0836002A00D03D
:10395800C4E1129A002A01D1FFF79FFA00221292BD
:10396800FFF789FA4146079801F0A6FE434600286A
:1039780001D001F00EFB0C229B5E1A221A400A2A83
:1039880001D0FFF7F8F942460E21525E002A01DA0B
:10399800FFF7F1F94246526ED20703D49B0501D4D2
:1039A80000F05CFE23005A464146079801F082FB6E
:1039B8000B9021E7990500D4F3E0990401D4FFF7AF
:1039C800C0F95213154201D1FFF7C5F943469B8947
:1039D8009B0501D401F00CFB01235B420B930BE721
:1039E8003A000899079801F0ABFB002800D0EDE6F3
:1039F800BC6831AEFFF74CFA3A000899079801F015
:103A08009FFB002800D0E1E6BC6831AEFFF72FFA33
:103A18001D4A7B68924610229046102D04DC1BE05C
:103A2800103D0836102D17DD5246326042461034DC
:103A380001337260BC607B60072BF1DD3A000899A6
:103A4800079801F07DFB002800D0BFE6103DBC6858
:103A58007B6831AE102DE7DC52466419013324C669
:103A6800BC607B60072B01DCFFF739FA3A00089944
:103A7800079801F065FB002800D0A7E6BC68FFF7AF
:103A88002EFAC04640B3000850B300082898002812
:103A980000DC29E1149B119A9846934200DD904678
:103AA8004346002B0BDD73607B684444013335606B
:103AB800BC607B60072B01DD00F06DFF08364346D4
:103AC800DB434246DB171340149AD31A9846002B5F
:103AD80000DDB7E3149B9A465B46AA445B0501D513
:103AE80000F05BFE289A11998A4204DB5B46DB07EB
:103AF80001D400F03FFC1C9B33601B9B9C46736009
:103B08007B6864440133BC607B60072B01DD00F0F7
:103B1800E3FF0836119B9C469A1A53466544ED1AF2
:103B2800954200DD1500002D0CDD534633607B689F
:103B3800641901337560BC607B60072B01DD01F0FF
:103B480052F80836EB43DB171D40551B002D01DCEE
:103B5800FFF7BBF97B68102D01DC01F021FA102278
:103B6800C3499046129122000C0005E00836103D2A
:103B7800102D01DCFFF739FA414610320133346069
:103B88007160BA607B60072BF0DD3A0008990798EE
:103B980001F0D6FA002800D018E6BA687B6831AE82
:103BA800E5E74346986DFEF7C9FB43460C229B5E4A
:103BB8004246526E990401D4FFF7C3F851130D42DF
:103BC80001D1FFF7C8F8154200D1FFE604E7012349
:103BD8005A46134200D023E673604346BC607B60BC
:103BE800072B00DC55E63A000899079801F0A8FA77
:103BF800002800D0EAE57B68BC68984631AB994656
:103C080047E6302900D194E13023013D0A9A023C6D
:103C18002B705AAB1B1B0C9309929A4200DA09933A
:103C28002500FFF761FB119B012B00DC31E6112B0E
:103C380001DC01F0AAF98E482100102543464A46C6
:103C48000400129004E00832103E102E00DC23E33A
:103C58001031013314605560B9607B60072BF2DDC9
:103C68003A000899079801F06BFA002800D0ADE5F2
:103C7800B9687B6831AAE7E73A000899079801F024
:103C88005FFA002800D0A1E5BC6831AEFFF70CF957
:103C98005213154201D1FFF75EF89DE65B46DB073C
:103CA80001D4FFF712F9FFF7A8FA80239843169A70
:103CB800179B11008346194301D0FFF7F2FA0A9BBC
:103CC800002B00D1B8E00023002416931794FFF7C7
:103CD800F0FA069B10921B78FFF78AF8129A904622
:103CE80000221292FFF7B3F8624B013433600123CC
:103CF80073607B68BC6001337B60072B01DD00F0DB
:103D08002DFE0836002800D054E25A4601231340FD
:103D1800119A134301D1FFF7D8F81C9B33601B9B02
:103D2800191973607B68B96001337B60072B01DD6B
:103D380000F02DFC320008324EE2099300231A935A
:103D480015930F93FFF773F81898199902000B0051
:103D580006F0FAFF002801D001F038F84B46612B35
:103D680001D100F059FE412B00D137E30A9B013302
:103D780001D100F0CCFF80235A465B001A439246DB
:103D88004A46199B672A01D100F0A1FF00220F9231
:103D98004A46472A01D100F09AFF80235A465B0021
:103DA8001A4392461899199A002A01DA00F075FF09
:103DB800189B199C24932594002312934B46413B4E
:103DC800252B01D900F000FC2B4A9B00D3589F46B5
:103DD800109B191D109B00221B681091FFF7ADFA6C
:103DE8000A680B9910931160C9175160FFF774FBAB
:103DF8002000FFF797FA2000FFF741FA9346FFF7F4
:103E080019F9109B191D109B20AA1B6816930023F3
:103E18001793D3760A9B002B01DA00F094FD8023D8
:103E28009843169B8346002B01D0FFF7FFFB0A9BA4
:103E38001091002B00D046E70C931A931593149316
:103E480009930F935AADFEF7F2FF2200109908C9A3
:103E5800D20601D500F01EFF2200520600D454E21B
:103E68001BB21693DB1717931091FFF7EFF8C046B4
:103E780040B3000820B00008A8B2000802205C4641
:103E8800109102210443A346E44C8C467631A046A7
:103E980089460D301840255C8424632120A8001928
:103EA80045541B09110720A80B4382461900E72532
:103EB80012090F2044461143554400290BD019001C
:103EC8000140615C013D29701B0911070B43190072
:103ED80012091143F3D10A9A5AAB5B1B0C9309924E
:103EE8009A4200DA0993002300210F931A9315933D
:103EF80014936346002B01D1FEF799FF84225B4699
:103F0800584613401293099BBC68023309937B6897
:103F1800024206D10E9A0998121A9046002A00DD2C
:103F2800D4E4002901D1FEF7A6FF02229046FEF74D
:103F38008EFF0A9A5AAB5B1B0C9309929A4201DBDB
:103F4800FFF7D2F9FFF7CFF93A000899079801F07F
:103F5800F7F8002800D039E4BC6831AEFEF79DFFC1
:103F68009946AF4BA34698465B469B065CD507230C
:103F7800109A07329A4311001368526808310120D9
:103F88005D465C460540204259D01800104300D1D8
:103F9800E3E04C46302527A844700570002020AC8B
:103FA800E0760A98002800DA98E05C469D480225E9
:103FB800044020002843834602205C460F25044025
:103FC80040461D40A446455D109165E79946934BD0
:103FD800A3469846C8E73A000899079801F0B0F850
:103FE800002801D0FFF7F2FBBC6831AEFFF714F9E7
:103FF8009933FF33069A1C43013213780692FEF771
:10400800F7FE4C3BF6E70993062B00D9AFE10023F6
:104018000F93099B844D0C93002310940A931A93D1
:1040280015931493FEF703FF5A46109908C9D20650
:1040380052D45A4652064BD500229BB29FE720A87D
:10404800C5760A9800284DDB764804401800A34638
:104058001043B1D10A98002800D19DE04346842539
:104068001A78632320AC6419E2540990002800DC14
:1040780096E100230F9301330C9300231A931593B1
:10408800149320ABE7259C4610916544FEF7CFFEBC
:104098003A000899079801F053F8002801D0FFF773
:1040A80095FB7B68BC68984631AB9946FFF7C1FB26
:1040B8003A000899079801F043F8002801D0FFF763
:1040C80085FB7B68BC68984631AB9946FFF7C6FB11
:1040D8005A46920500D571E1002250E75C4602205D
:1040E8000443A34602205C460F2504404046A446EC
:1040F8005C461D40455D4D4810910440A346CBE603
:104108004346986DFEF71CF943460C229B5EFFF769
:1041180070FB00235AAD0C931A93159314930F93C5
:10412800FEF785FE3A000899079801F009F800287B
:1041380001D0FFF74BFB20ABDB7EBC68002B77D0B0
:10414800129A7B689046002231AE1292FEF77FFEEB
:104158000798FDF701FFFEF7E7FD20ABD8760A9B2D
:10416800002B00DACAE35A462E4B1A40934671E7F1
:104178003A000899079800F0E3FF002801D0FFF7FC
:1041880025FBBC6831AEFFF732F8109A0B9912681C
:1041980011601093FFF7A0F9002310914CE60F204F
:1041A8001E4C1840255C022084467630A046814685
:1041B800109171E61C9B33601B9B191973607B6817
:1041C800B96001337B60072B00DDE0E13200083283
:1041D800002801DA00F025FD119801334418156014
:1041E8005060BC607B60072B01DDFEF709FF0832D9
:1041F8001600FEF76AFE2800FEF7A4F8C343020083
:10420800DB171A4020ABDB7E0C900992002B01D102
:10421800FEF770FF01320992FEF76CFFF0AF00085D
:1042280004B000087FFBFFFF18B00008FFFBFFFF8A
:10423800129B002B00D1A9E000227B68129231AEBC
:10424800FEF719FE42467B68102A01DC00F0CDFE1D
:104258001022D6499146129122004446A8460D00E4
:1042680004E00836103C102C00DC5BE349461032B1
:10427800013335607160BA607B60072BF1DD3A006D
:104288000899079800F05CFF002801D0FFF79EFA14
:10429800BA687B6831AEE5E70C00984691464B4614
:1042A800129AA41944C301239C46E0444346BC60C7
:1042B8007B60072B01DCFFF7E9FA94E4802358467A
:1042C8009B0018401D427CD1002316920A9A17932E
:1042D80020ABD876002A01DAFFF7A8F980235846E0
:1042E8009843169B8346002B01D0FFF79FF9109146
:1042F800002A00D0E7E49FE52200920559D5002264
:104308002000DBB21091FFF718F8220092054AD579
:104318005BB21693DB1717931091FEF797FEA34A2B
:104328001292FEF737FF3A004146079800F008FF5F
:10433800002801D1FEF7F7FDFFF750FA002220AB65
:10434800DB7E09920C925AADFEF7C9FF984DFEF735
:104358003DFE002314931A9315930C930993783315
:104368009946002310915AAD00210F93C6E5062304
:1043780009934CE68C46534665448A1AED1A9542D1
:1043880001DCFFF7DFFB1500FFF7DCFB31AEFEF7C2
:1043980084FD109A0B99126810931180FFF79CF80E
:1043A800623B099365E61693DB1717931091FEF7A6
:1043B8004DFE002220001091FEF7BFFF0022DBB265
:1043C800DDE5D3B216930023179320ABDC760A9B66
:1043D800002B01DBFFF721F9FFF728F9754B20AA1D
:1043E800938302235A461A430A9B9346632B01DDA3
:1043F80000F062FC1899199A002A01DA00F092FC80
:104408001898199928AA01F01FFBFF2300229B0581
:1044180005F0A2FF002200230C900D91FBF738FF56
:10442800002801D001232893002312930F93624B95
:1044380041AD09930A9BA8469C46AC4463460A933F
:104448004B4614935B46A9460C9C0D9D11961593FB
:1044580007E000220023FBF71BFF002801D000F033
:1044680031FD0022554B2000290005F075FF0D0095
:10447800040006F087FC060006F0B6FCC2460200FF
:104488000B002000290006F08DF9012352469C46B6
:10449800099B04009B5D0D0013700A9BE0449A453C
:1044A800D7D1159B4D469B46149B00229946444BF9
:1044B8000A9644460C900D91119EFBF703FF0028C5
:1044C8000AD10C980D9900223D4BFBF7E1FE00281C
:1044D8001AD00A9BDB0717D553462C9343460999F4
:1044E800013B1A78C97B914207D1302018702C9B68
:1044F800013B2C931A788A42F8D0392A01D100F06E
:10450800ACFD0132D2B21A70289A631B1193531E64
:104518009A4628934B467021612B02D04123994635
:1045280020392AAB19705146002901DA00F0F1FC54
:104538002B225A70092900DD0DE320A92A228C4676
:1045480062445146303111700132D31A1F93119BC6
:104558001F991A008C4662440C92012B00DCDCE3A4
:104568001B9A0C9B944663440C935A46154B1A406D
:104578001300802252001A4393460C9AD343DB1748
:104588001A40002309921A931593149354E03A00A1
:104598000899079800F0D4FD002801D0FFF716F914
:1045A8002898B9687B6831AA12E6C04640B300086B
:1045B800E0AF00083058000004B0000800003040A8
:1045C8000000E03FFFFBFFFF2CAB049329AB0393F4
:1045D80028AB02930A9B0798019302230093249A1D
:1045E800259B01F00DFB05005B46DB0700D5F0E2DB
:1045F8002C9B289A591B11911492D31C00DA96E22D
:104608000A9B934200DA41E2914200DD33E3149BB6
:104618000C935B465B0504D5149B002B01DD00F071
:10462800F9FB0C9AD346D343DB171A406723994604
:10463800099200231A93159302205B4603409C4677
:10464800129B002B00D18AE02D232D2120AAD3769E
:10465800099B0133099300230A934AE44346986D62
:10466800FDF76EFEFFF79EF9219A2099AD1A2800F2
:1046780001F004F91D9930004B788C465A1E93417D
:104688009C4463460A2239001D930023FBF72EFE43
:104698000A22002306000F00FBF728FE0123013D34
:1046A80030322A701193FEF77AFF0A9B0133119377
:1046B80002232CAA119C049229AA039228AA0292E6
:1046C800019400930798249A259B01F099FA2023D6
:1046D8004A469A43050090460419462A00D167E1E4
:1046E8002498259900220023FBF7D2FD002801D049
:1046F80000F024FC45222C9B9046A34201D300F0F5
:10470800B2FC30215A1C2C9219702C9BA342F9D36D
:104718005B1B11934346289A1492472B00D1AEE1B4
:10472800462B00D15DE1149B4A46013B9A462893EB
:104738002AAB1A705246002A00DA02E22B225A707B
:104748005246092A00DD06E2302220A98C469A70DA
:10475800053A6244F5E60A9B11930323A9E720ABC7
:10476800D97E002900D073E700230A93FFF7C1FB25
:104778002D2320AAD3764B46472B00DC43E20023A7
:104788000F9303330C9300230A931A9315931493EE
:104798000433D84D0993FEF74AFB119B5A469C46B1
:1047A800AC4463460A93D44B129298461023219A3C
:1047B8001A9993461D9A9946330056469246220006
:1047C8004446884615991495002931DD414600294B
:1047D8007EDD012149428C46E04420995A44196003
:1047E800594659607968BA6001317960072963DCF4
:1047F800083351460A980978851B8D4200DD0D0063
:10480800002D0BDD7968521901311E605D60BA60B8
:104818007960072964DC514609780833E843C017F2
:1048280005404D1B002D17DC761815990029CDDCA5
:1048380041460029CDDC1299149D8B465146B2465B
:104848001E00119B1400EB181D919A4501D8FFF723
:1048580049F99A46FFF746F97968102D00DC24E3F8
:104868000C9403E0103D0833102D17DD4846103234
:1048780001311C605860BA6079600729F2DD3A009E
:104888000899079800F05CFC002801D0FEF79EFF0D
:10489800103DBA68796831AB102DE7DC0C985219D5
:1048A800013118605D60BA607960072964DC51469F
:1048B800097808337618B8E73A000899079800F09D
:1048C8003FFC002801D0FEF781FFBA6831AB90E7C2
:1048D800012149428C461599E244614415917CE7CF
:1048E8003A000899079800F02BFC002801D0FEF741
:1048F8006DFF5346BA68197831AB8FE75A467F4B3C
:1049080084241A40434693461A78632320A8001942
:10491800C25400239C4620ABE72598461091454495
:10492800FFF7D9FA4546A0461400129A444432606B
:10493800424601337260BC607B60072B00DD19E2E0
:104948000836FFF7C7F883461091FEF7AAFC099BC3
:10495800092B01D9FEF713FEFEF730FE3A0008993D
:10496800079800F0EDFB002801D0FEF72FFF2898EC
:10497800BC6831AEFFF7C6F93A000899079800F00D
:10498800DFFB002801D0FEF721FF53461978BA68EB
:1049980031AB761849E73A000899079800F0D0FB40
:1049A800002801D0FEF712FFBC6831AEFFF787F888
:1049B8002B78302B00D15EE2289BE4180022249843
:1049C80025990023FBF764FC002851D12C9BA342B6
:1049D80000D296E65B1B11934346289A1492472B04
:1049E8004DD05A460123149913400A9A13430029BB
:1049F80000DCBAE2002B00D096E2149B0C936623ED
:104A080099465B465B0500D506E20C9AD343DB1753
:104A18001A40D34609920CE6394B20AA9383022305
:104A28005A461A430A9B9346632B00DD44E11899C2
:104A3800199A002A00DA75E11898199928AA01F03C
:104A480003F8FF2300229B0505F086FC00220023C3
:104A58000C900D91FBF71CFC002800D1A4E2012367
:104A68002893002341AD12930F93264B0993E1E459
:104A7800289B1493631B11934346472BB1D1149B76
:104A8800033354DB0A9B149A934215DA02235B42E0
:104A98009C46149BE144013B9A464A4628932AAB1C
:104AA8001A705246002A00DB48E601221499521A6D
:104AB80092462D225A7047E6119B149A934200DDC4
:104AC800D9E05B46149A0C92DB0700D4A1E51B9B46
:104AD8009C4662440C929CE53A000899079800F0BD
:104AE8002FFB002801D0FEF771FE289ABC6831AE72
:104AF800FFF710F8E4AF000840B30008FFFBFFFF22
:104B080030780000F0AF0008002A00D13FE10A9B8E
:104B180010945A1C09920C9300230A931A93159324
:104B28001493FEF784F9E2498A46FEF700FF022350
:104B38005B429C46E1444A46149B013B28932AABBE
:104B48001A7001221499521A92462D225A7052460E
:104B5800092A00DCF8E520A937228C466244099628
:104B680014005646AA460A9330000A21FBF774FB44
:104B7800A0463031013C300021700A21FBF722FBAE
:104B880035000600632DEFDC010042463031023A61
:104B980020A884461170372161445546099E0A9B16
:104BA8008A4200D32AE22A20604401009A461478F7
:104BB80020AB0C709C463724013264440131944286
:104BC800F5D14146534622180232521AD31A1F937E
:104BD800BDE40A9BEC1847239846EFE600220690AE
:104BE8000A92FEF708F93A000899079800F0A8FA1F
:104BF800002801D0FEF7EAFD289A119BBC689A1A92
:104C080031AEFEF79FFF00230F9303330C9300236D
:104C18000A931A93159314930433A64D0993FEF738
:104C280006F94442103000DB2EE2A348A8461026BD
:104C38000500129004E00832103C102C00DCABE0B8
:104C48001031013315605660B9607B60072BF2DDC7
:104C58003A000899079800F073FA002801D0FEF787
:104C6800B5FDB9687B6831AAE6E72000FFF7B2F81E
:104C78002000FFF7C8F81B9A119B944667229146BB
:104C8800149A63440C93002A00DDBAE69B1A5A1C56
:104C98000C92BBE62200FEF72BFC130080221206C2
:104CA8009446634425932D2324911293FFF786F8A5
:104CB800814A1292FEF773FD0A9B0798591CFDF76B
:104CC80021FD051E00D1E6E10F90FFF766F80A9A6C
:104CD800002A00D1DDE0002B00DA7AE1189B199C4C
:104CE80024932594002312932CAB049329AB0393AC
:104CF80028AB02930A9B0798019302230093249AF6
:104D0800259B00F07DFF002305000F936CE4002332
:104D18000F9306330A93FFF740F85B46DB0700D48E
:104D280023E41DE41300802212069446634425936D
:104D380000230F932D33249141AD129328AA249870
:104D4800259900F081FEFF2300229B0505F004FB56
:104D5800002200230C900D91FBF79AFA002801D04D
:104D680001232893554B09934B46612B01D0FFF73C
:104D780061FB7AE63A000899079800F0E1F9002803
:104D880001D0FEF723FDBC6831AEFEF7A3FE0A9BF7
:104D980010940C930993BFE64546129809190133FC
:104DA80010605460B9607B60072B01DCFEF7C3FF1D
:104DB8003A000899079800F0C3F9002801D0FEF7D7
:104DC80005FDB9687B6831AAFFF706FA199B5946B1
:104DD800DB0FDA071492802291438B46002B00D117
:104DE800B0E02D2320AAD3764B46472B00DC17E1F1
:104DF80000230F9303330C9300230A931A931593FC
:104E0800149304332E4D0993FEF711F8089B984626
:104E1800FEF7E4FC672399461D990B78FF2B00D118
:104E280035E100221A921592149A05E0159801317D
:104E380001301590FF2B0AD0934208DAD21A4B782A
:104E4800002BF3D11A9B01331A930B78F2E71D91CB
:104E58001492159A1A9B9446219A634453430C9AC8
:104E6800D34694469C446246D343DB170C921A40BF
:104E78000992FFF7E1FB0022249825990023FBF70C
:104E880007FA002800D17BE0289B9C4614936444D1
:104E9800F0E5002B00DAB5E0189B199C24932594C3
:104EA8000023129301330A931EE703480C90F5E49C
:104EB80050B30008E0AF000840B3000804B0000891
:104EC800ECAF0008159B4D469B46149B0A999946E2
:104ED8005346DB4344463022119E481CCB4201D541
:104EE800FFF712FB43460A9C19001A700133A142CE
:104EF800F9D10400FFF708FB00230F9303330C9349
:104F080000230A931A931593149304330993FDF716
:104F18008EFF01218A1A92462D225A705246092A7A
:104F280000DD18E6FFF709FB13008C461B9A634463
:104F3800944663440C936623994662E5289B149330
:104F4800FFF7F1FB4A4620ABDB7E472A00DC88E00E
:104F5800554D002B00D08CE00A931A9315930F93AC
:104F680003330C930993FDF762FF002B21D1012332
:104F7800099365339946653BD3460C93FFF759FB74
:104F88000123119A9B1A289317E5484B1293FFF7B0
:104F980086F95B6EDB0701D5FEF71EFDFEF716FDF1
:104FA800424A1292FEF722F8002341AD12930F9362
:104FB8005BE50A9A1B9B944601339C446246D343A3
:104FC800DB170C921A406623D34699460992FFF7DD
:104FD80030FB1899199A13008022120694466344EC
:104FE80025932D23249112937EE6304A12929CE455
:104FF8004346986DFDF7A4F9FEF7EEFC02231F93D4
:10500800FFF7A5FA1899199A1300802212069446F8
:10501800634425932D2312932C3B24910A9363E632
:1050280000230F9303330C9300230A931A931593C9
:10503800149304331E4D0993FDF7F9FE109A08CA1C
:105048000A93002B02DA01235B420A93109262460C
:10505800069B06925B78FDF7CBFE099A927AFFF7DA
:1050680052FA134D75E7289A5B1B14921193FFF7B8
:105078005AFB00230A931A9315930F9303330C9347
:1050880001330993FDF7D3FE0848129085E6002303
:105098001A931593DDE6089B9A8998464023134393
:1050A80042469381FEF79AFBECAF000840B3000834
:1050B800E8AF0008F0B5C64600B5204C1600A54478
:1050C80002226C4698468B8907009343A3814B6E56
:1050D80016A81993CB890D00E381CB6907934B6A16
:1050E80009931AAB009304938023DB000293059382
:1050F80000230693FDF71EF932004346694638003F
:10510800FDF7F6FD061E10DAA3895B0603D54022DB
:10511800AB891343AB81A06DFDF70EF930008D23E9
:10512800DB009D4480BCB846F0BD6946380000F0FD
:105138001BF90028E8D001267642E5E798FBFFFF37
:1051480010B5140092680023002A05D0220000F050
:105158003FF900220300A26000221800626010BD1F
:1051680070B506000C1E3FD0002802D0436B002B00
:1051780047D001250C22A35E626E2A4232D19B05DC
:1051880042D52100300000F051F8E36A0500002BF9
:1051980004D03000E1699847002828DBA3891B0662
:1051A8002AD4216B002908D023004033994202D029
:1051B8003000FDF7AFF900232363616C002904D0A8
:1051C8003000FDF7A7F900236364FCF7E1FE002334
:1051D800A381636EDB0725D5A06DFDF7ADF8FCF75D
:1051E800DFFE02E0002BCCD10025280070BD012590
:1051F800A3896D421B06D4D530002169FDF78AF9D1
:10520800CFE7FCF7A9FEB4E7A06DFDF797F80C22ED
:10521800A35E002BB5D1636E2B42E5D1A06DFDF7DF
:105228008FF8E1E7A06DFDF78BF8D5E7F0B5C64636
:1052380000B50C228B5E07000C001A074DD48021A4
:10524800626809011943A181002A69DDA56A002D58
:105258003FD000223E683A60DB0466D40022012376
:105268003800E169A8470200431C6BD00C23E15EBB
:10527800A56A490706D56368D21A236B002B01D0AB
:10528800E36BD21A00233800E169A8470C23E25ED9
:10529800431C4CD139681D295ED8314BCB40DB0704
:1052A8005AD5304B1340A3810023636023692360E0
:1052B800D20401D5002943D0216B3E60002908D0D3
:1052C80023004033994202D03800FDF723F9002328
:1052D8002363002080BCB846F0BD0E69002EF8D0CC
:1052E8000D680022AD1B0E609B0700D14A69A260C1
:1052F800002D04DCEDE736182D1A002DE9DD636A70
:105308003200984638002B00E169C0470028F2DCDB
:105318004022A38913431BB20120A3814042D9E74D
:10532800E26B002A00DD91E7D3E7226DA1E70D4B80
:105338001340A3810023636023692360D204BBD593
:105348002065B9E73B68002B00D18FE71D2B01D002
:10535800162BDDD13E60BCE740231343DCE7C04693
:1053680001004020FFF7FFFF70B505000C00002882
:1053780002D0436B002B27D00C22A35E002B11D048
:10538800626ED20701D49B050ED528002100FFF7D5
:105398004DFF636E0500DB0702D4A3899B050FD57B
:1053A800280070BD0025FBE7A06DFCF7C7FF2800AB
:1053B8002100FFF73BFF636E0500DB07F0D4ECE745
:1053C800A06DFCF7BDFFEBE7FCF7C6FDD4E7C046D0
:1053D800F0B54546DE4657464E46E0B5936883B07D
:1053E8000C0090460090002B27D00C228B5E1A07E9
:1053F8002BD50A69002A28D0424616689A0730D564
:10540800AA4B002700259946002D00D18CE02B00DF
:105418004D4500D9A54B626AE169924600983A0069
:10542800D047002800DC89E0434642469B683F1885
:105438001B1A2D1A9360002BE6D1002003B0F0BC94
:10544800BB46B246A946A046F0BD2100009800F030
:1054580033F9002877D10C22A35E424616689A07D2
:10546800CED4DA0772D40022914680229200002717
:105478009346002F53D05A462068A568134200D19E
:10548800A8E0AA46BD4200D9D6E09022D200134235
:105498002DD02169451A6069019542001218D00F74
:1054A8008218681C5210C0199246904201D982464F
:1054B80002005B0500D4DDE011000098FDF722F939
:1054C800051E00D1EBE0019A216900F067FAA38973
:1054D800774A134080221343A3815246019B2561DA
:1054E800E818BA463D00D31A20606261A3605246AC
:1054F800494600F061F9A3685B1B3D000027A360E3
:10550800236853442360434642469B68A9445B1B77
:10551800936000D191E70C22A35E002FABD13268D3
:10552800776891460836A4E73768756808366BE7E8
:1055380021000098FFF718FF00282BD00C22A35E4B
:1055480040221343A3810120404277E7002300272C
:10555800B14600209A461E00002F27D000282ED0E2
:105568003300BB469F4200D99B4620682269636985
:10557800904203D9A5685D19AB456DDC5B455EDCDF
:10558800656A5246E1690098A847051ED6DD0120E4
:10559800761BCDD0434642469B68AA445B1B7F1BC3
:1055A8009360002B00D148E7002FD7D108224B4643
:1055B80094465F68E144002FF8D01B689A463A0089
:1055C8000A21504600F0ACF9002865D05346013056
:1055D800C61AC5E72369834217D363699A46BB4253
:1055E80013D8802338001B069F4200D33148514608
:1055F800FAF7E8FD5346656A43434A46E16900986D
:10560800A847051E9ADD7F1B7DE7BD4200D93D00F6
:105618002A00494600F0D0F8A36822685B1B52199B
:10562800A3602260002BEED121000098FFF79CFEBA
:10563800002883D17F1B66E73D00BA4657E75A46E4
:10564800514600F0B9F85A46A3685D469B1AA36014
:1056580023685B4423609AE751462A0000F0ACF8BF
:10566800236821005B1900982360FFF77DFE00285E
:105678008DD063E7009801F08DFF051E00D02CE760
:10568800009D21692800FCF745FF8022A3899343E8
:10569800743A1BB22A6053E77B1C1E0061E70C2397
:1056A800009A13600C22A35E4AE7C04600FCFF7F05
:1056B8007FFBFFFFFFFFFF7F3E4B70B505001868BB
:1056C8000C00002802D0426B002A5CD00C22A35E9A
:1056D8001A070ED52269002A15D001221100194097
:1056E8001A4223D00023A36063695B42A3610020B0
:1056F80070BDDA0656D55A071DD4226908210B4316
:10570800A381002AE9D1A0218020890080001940C6
:10571800814227D1D90739D5A26062695242A26174
:105728001A06E4D540221343A38140E09B0717D40F
:105738006369A360DBE7216B00290AD022004032AD
:10574800914204D02800FCF7E5FE0C22A35E00225B
:105758002263242293430022626022692260CDE7FB
:10576800A160C4E72100280002F0BCF80C22A35E67
:105778002269D9070FD50021A16061694942A16159
:10578800002ACDD0B3E7FCF7E7FB9FE7990707D4DA
:105798006169A160F4E700219807FAD46169F8E724
:1057A800A260BDE709222A6040221343A381012099
:1057B80040429DE73C000020F0B5CE46474680B504
:1057C80088420DD98B1898420AD2531E002A03D05A
:1057D800CA5CC254013BFBD2C0BCB946B046F0BD5E
:1057E8000F2A0BD80500561E002AF5D00023CC5CE2
:1057F8001A00EC5401339642F9D1EDE703000B434C
:1058080088469B0734D110261700B1460C000300C8
:10581800103F3F093F01C519A94426681E60666804
:105828005E60A6689E60E6681034DE601E00103375
:10583800AE42F2D1CF1939000F230C2610318C4615
:105848001340164217D04446043B9B089B00FF18A0
:105858001437061B0C688D1904312C60B942F9D134
:105868006146043359184B441D0003231A40BAE714
:105878000500561EBAE74D461A00B4E70B0003436D
:1058880070B506009B070DD1032A0BD9104D0C6883
:10589800104BE318A3432B4204D1043A043110C639
:1058A800032AF4D83300002406E00D5D013A35558B
:1058B80001330134002D02D0002AF6D170BD002139
:1058C8009C18002AFAD0197001339C42FBD1F5E7E5
:1058D80080808080FFFEFEFE00487047880600201A
:1058E800002370B5064C05000800236003F0C8FBD0
:1058F800431C00D070BD2368002BFBD02B60F9E758
:10590800B8080020802310B55B01082801D11800D1
:1059180010BD02F077F816230360173BF7E7C0467F
:105928000300F0B50700CCB2980730D003269D18C5
:1059380006E01878A04207D0581C304206D0030071
:10594800AB42F6D10020F0BD1800FCE7013AD219AD
:10595800D21A032A11D9FF230B401902C9180B04C4
:105968000C4EC91803680C4D4B405D199D433542D8
:1059780005D1043A0430032AF4D8002AE2D0821868
:105988000378A342DFD001309042F9D1DAE718005A
:10599800DFE7C04680808080FFFEFEFEF0B5CE4681
:1059A800474680B50F2A0ED80500561E002A06D095
:1059B8000023CC5C1A00EC5401339642F9D1C0BCE8
:1059C800B946B046F0BD03000B4388469B0734D167
:1059D80010261700B1460C000300103F3F093F0195
:1059E800C519A94466685E60A6689E60E668DE60C0
:1059F800266810341E601E001033AE42F2D1CF1953
:105A080039000F230C2610318C461340164217D04C
:105A18004446043B9B089B00FF181437061B0C6880
:105A28008D1904312C60B942F9D1614604335918F3
:105A38004B441D0003231A40B7E70500561EB7E77D
:105A48004D461A00B1E7C04670B514000022226026
:105A5800114A4B000D005B08934211D81A0002430B
:105A68000ED00E4A0A420CD000220D4E1B15B44629
:105A780063449B1823600B4B0B4A2B401A431100BD
:105A880070BD0022094B04F067FC36224B000D0064
:105A98005B085242E9E7C046FFFFEF7F0000F07F56
:105AA80002FCFFFFFFFF0F800000E03F00005043B3
:105AB800F0B54546DE4657464E46E0B503690D69E2
:105AC80085B080460A000291AB4200DA96E00700F2
